S01700004763634170706C69636174696F6E322E737265635A
S11300000C942A000C9424010C9447000C9447008F
S11300100C9447000C9447000C9447000C94470040
S11300200C9447000C94FE000C9447000C94470079
S11300300C9447000C9447000C9447000C94470020
S11300400C9447000C9447000C9447000C94470010
S11300500C94470011241FBECFE5D8E0DEBFCDBF0E
S113006010E0A0E6B0E0E4EDF5E002C005900D92EA
S1130070A237B107D9F720E0A2E7B0E001C01D9292
S1130080AF37B207E1F70E9442010C94E8020C94E6
S11300900000929A8A98909A8898919A899880E414
S11300A08BBF83E085BF78940895809B02C08199BB
S11300B043C080917400813071F5809917C080919C
S11300C07300882399F0809170008B3418F48B5F4F
S11300D08093700080990AC0809170000E94C400CF
S11300E0809BFACF809174008130A9F4819913C068
S11300F080917000843278F090917300992359F0C4
S1130100855080937000819906C0809170000E9490
S1130110C400819BFACF6091700085E590E00E9455
S1130120DB0281E0809374001092730085E590E017
S11301300E94D3028093700008956091700085E559
S113014090E00E94DB020895CF93C82F84E090E0F2
S11301500E94B20126E0FC012083118223E0228365
S1130160C3830E947301CF91089580E00E949E0191
S1130170969587959695879508958FEF87BB18BABE
S113018008958FE788BB08959DEC899F912D1124D4
S1130190E92FE695E695E695EE0F2E2F220F220F16
S11301A0E20F8E1B80937A00969596959695909380
S11301B07900E82FF0E0EA59FF4F808188BB8FE196
S11301C09EE40197F1F700C00000D998DA9AE09113
S11301D07900F0E0EA59FF4F808188BB8FE19EE40B
S11301E00197F1F700C00000D99ADA9808958F9A20
S11301F08E9A089596980895979808951F920F924D
S11302000FB60F9211248F939F93809174008130C5
S113021059F48FEF88BB80917300893029F41092D0
S1130220740081E0809373008BE791EE9DBD8CBDDB
S1130230809173008F5F809373009F918F910F90D3
S11302400FBE0F901F9018951F920F920FB60F922A
S113025011242F938F939F938091720080958093A4
S113026072002FE788E391E0215080409040E1F74D
S113027000C000009F918F912F910F900FBE0F909F
S11302801F9018950E949D000E9449000E94BD0085
S11302900E94A6010E94F70080E00E94A400C1E031
S11302A0809172008823A1F00E945500809174000F
S11302B0811105C00E94B5000E94C400F1CF809155
S11302C0730080FDEDCF809170000E94C400E8CFE0
S11302D00E94C1000E94FC000E94FA001092740067
S11302E0C0937300DDCFDC01E5E7F0E08C918083FF
S11302F011968C911197818312969C9112979283F7
S113030013969C919383813011F4339A03C0811125
S113031001C03398379A96B1E5E7F0E08081892BE4
S113032086B927B1928130E4939FC0011124822BB6
S113033087B997B18381892B87B90895369A349BFD
S1130340FECF84B125B190E0922B08951FBC8EB5E9
S113035085608EBD8BE791EE9DBD8CBD89B78460B1
S113036089BF08950F931F93CF93DF938230910534
S113037010F482E090E0E0917D00F0917E0020E0B6
S113038030E0A0E0B0E0309719F140815181028162
S1130390138148175907C8F08417950769F4109713
S11303A031F012960C93129713961C9327C0009366
S11303B07D0010937E0022C02115310519F04217EB
S11303C0530718F49A01BD01EF01DF01F801DBCFF7
S11303D021153105F9F0281B390B2430310580F43F
S11303E08A819B816115710521F0FB0193838283CE
S11303F004C090937E0080937D00FE01329644C039
S1130400FE01E20FF31F8193919322503109398346
S113041028833AC020917B0030917C00232B41F447
S1130420209162003091630030937C0020937B0024
S113043020916000309161002115310541F42DB700
S11304403EB74091640050916500241B350BE09148
S11304507B00F0917C00E217F307A0F42E1B3F0B06
S11304602817390778F0AC014E5F5F4F2417350722
S113047048F04E0F5F1F50937C0040937B008193A4
S1130480919302C0E0E0F0E0CF01DF91CF911F91A2
S11304900F910895CF93DF93009709F481C0FC0175
S11304A0329713821282A0917D00B0917E00109742
S11304B081F420813181820F931F20917B00309140
S11304C07C002817390751F5F0937C00E0937B00FA
S11304D067C0ED0120E030E0CE17DF0740F44A8129
S11304E05B819E0141155105F1F0EA01F5CFD383FB
S11304F0C28340815181840F951FC817D90759F4CD
S113050088819981840F951F0296918380838A81C3
S11305109B81938382832115310529F4F0937E0016
S1130520E0937D003DC0E901FB83EA834991599141
S1130530C40FD51FEC17FD0761F480819181840FEE
S1130540951F0296E90199838883828193819B8315
S11305508A83E0E0F0E012968D919C9113970097C6
S113056019F0FD01DC01F7CF8D919C9111979D014C
S11305702E5F3F4F820F931F20917B0030917C00B0
S11305802817390769F4309729F410927E001092E5
S11305907D0002C013821282B0937C00A0937B0082
S11305A0DF91CF910895E199FECF9FBB8EBBE09A76
S11305B099278DB30895262FE199FECF9FBB8EBB5B
S11305C02DBB0FB6F894E29AE19A0FBE01960895F6
S10705D0F894FFCFC9
S11305D400007F002000C0F9A4B0999282F88090B2
S10505E43C00D5
S9030000FC
