:100000000C942A000C94E3010C9447000C944700D4
:100010000C9447000C9447000C9447000C94470044
:100020000C9447000C9447000C9447000C947D01FD
:100030000C9447000C9447000C9447000C94470024
:100040000C9447000C9447000C9447000C94470014
:100050000C94470011241FBECFE5D8E0DEBFCDBF12
:1000600010E0A0E6B0E0EAEBF7E002C005900D92E8
:10007000A237B107D9F720E0A2E7B0E001C01D9296
:10008000AD39B207E1F70E94F4010C94DB030C9444
:100090000000929A8A98909A8898919A899880E418
:1000A0008BBF83E085BF78940895809B02C08199BF
:1000B00043C080919200813071F5809917C0809182
:1000C0009100882399F0809171008B3418F48B5F34
:1000D0008093710080990AC0809171000E94C400D1
:1000E000809BFACF809192008130A9F4819913C04E
:1000F00080917100843278F090919100992359F0A9
:10010000855080937100819906C0809171000E9492
:10011000C400819BFACF6091710085E590E00E9458
:10012000CE0381E0809392001092910085E590E0EB
:100130000E94C6038093710008956091710085E567
:1001400090E00E94CE030895CF93C82F84E090E002
:100150000E94A50226E0FC012083118223E0228375
:10016000C3830E942A02CF91089580E00E94550225
:10017000969587959695879508958FEF87BB18BAC2
:1001800008958FE788BB08959DEC899F912D1124D8
:10019000969596959695392F330F232F220F220F80
:1001A000230F821B8093980090939700809170009A
:1001B00081110AC0D99ADA98E0919800F0E0EA59E2
:1001C000FF4F808188BB0895D998DA9AE091970013
:1001D000F0E0EA59FF4F808188BB08958F9A8E9A8C
:1001E0008B9A0895969A089596980895979A0895E7
:1001F0009798089580918D00882329F0939A809193
:100200008D00811101C093980895939A0895939851
:10021000089585E590E00E94C60390E02091720069
:1002200030917300821B930B853F2FEF92073CF4B4
:100230000E94F2000E94F8000E94050108958F3F7D
:100240009F4F3CF00E94F6000E94F4000E94FA00CA
:1002500008950E94F8000E94F4000E94070108958A
:10026000CF93DF93C0918A00D0918B00CA30D10523
:1002700094F40E94B500CC0FDD1FCA58DF4F99835C
:10028000888380918A0090918B00019690938B00D7
:1002900080938A002FC010928B0010928A004091A8
:1002A0007200509173006091740070917500E6E7E0
:1002B000F0E02AE830E081919191092E000CAA0B20
:1002C000BB0B480F591F6A1F7B1FE217F30799F7F3
:1002D000CB01BA012AE030E040E050E00E94640225
:1002E0002093720030937300409374005093750014
:1002F0000E940901DF91CF9108951F920F920FB6CE
:100300000F9211242F933F934F935F936F937F939B
:100310008F939F93AF93BF93EF93FF9380918E0042
:10032000882361F080917000813019F41092700080
:1003300003C081E08093700010928E0080918F0046
:100340008F5F80938F0080918E008F5F80938E00EF
:10035000809190008F5F809390008E31D8F08091D3
:100360008D00809580938D0080919200813059F4AA
:100370000E94C10080919100893029F4109292006E
:1003800081E080939100809191008F5F8093910034
:100390001092900080918F00833020F010928F0097
:1003A0000E943001FF91EF91BF91AF919F918F918A
:1003B0007F916F915F914F913F912F910F900FBE61
:1003C0000F901F9018951F920F920FB60F92112445
:1003D0008F9380918C00809580938C008F910F90EB
:1003E0000FBE0F901F9018950E949D000E9449001B
:1003F0000E94BD000E945D020E94EE0080E00E940B
:10040000A400C1E080918C008823B9F00E945500BF
:1004100080919200811105C00E94B5000E94C40025
:10042000F1CF8091910080FD05C0809171000E9404
:10043000C400E8CF0E94C100E5CF0E94C1000E9425
:10044000F8000E9407010E94F40010929200C093ED
:100450009100D8CFDC01E3E9F0E08C918083119624
:100460008C911197818312969C9112979283139687
:100470009C919383813011F4339A03C0811101C0A0
:100480003398379A96B1E3E9F0E08081892B86B9F9
:1004900027B1928130E4939FC0011124822B87B948
:1004A00097B18381892B87B90895369A349BFECF03
:1004B00084B125B190E0922B089581E089BF88E056
:1004C00082BF85E083BF0895052E97FB1EF400943C
:1004D0000E947B0257FD07D00E94830207FC03D0D5
:1004E0004EF40C947B0250954095309521953F4FEA
:1004F0004F4F5F4F089590958095709561957F4F10
:100500008F4F9F4F0895A1E21A2EAA1BBB1BFD011E
:100510000DC0AA1FBB1FEE1FFF1FA217B307E407E2
:10052000F50720F0A21BB30BE40BF50B661F771F3A
:10053000881F991F1A9469F760957095809590951A
:100540009B01AC01BD01CF0108950F931F93CF9381
:10055000DF938230910510F482E090E0E0919B00FF
:10056000F0919C0020E030E0A0E0B0E0309719F17D
:10057000408151810281138148175907C8F08417BF
:10058000950769F4109731F012960C931297139611
:100590001C9327C000939B0010939C0022C0211540
:1005A000310519F04217530718F49A01BD01EF0104
:1005B000DF01F801DBCF21153105F9F0281B390BDC
:1005C0002430310580F48A819B816115710521F009
:1005D000FB019383828304C090939C0080939B00D3
:1005E000FE01329644C0FE01E20FF31F8193919306
:1005F00022503109398328833AC0209199003091E3
:100600009A00232B41F420916200309163003093D3
:100610009A0020939900209160003091610021158B
:10062000310541F42DB73EB740916400509165000B
:10063000241B350BE0919900F0919A00E217F30723
:10064000A0F42E1B3F0B2817390778F0AC014E5F42
:100650005F4F2417350748F04E0F5F1F50939A00E5
:10066000409399008193919302C0E0E0F0E0CF01C4
:10067000DF91CF911F910F910895CF93DF93009752
:1006800009F481C0FC01329713821282A0919B0071
:10069000B0919C00109781F420813181820F931FCB
:1006A0002091990030919A002817390751F5F0935D
:1006B0009A00E093990067C0ED0120E030E0CE178A
:1006C000DF0740F44A815B819E0141155105F1F03D
:1006D000EA01F5CFD383C28340815181840F951FF6
:1006E000C817D90759F488819981840F951F0296FC
:1006F000918380838A819B81938382832115310535
:1007000029F4F0939C00E0939B003DC0E901FB833A
:10071000EA8349915991C40FD51FEC17FD0761F485
:1007200080819181840F951F0296E90199838883C6
:10073000828193819B838A83E0E0F0E012968D9121
:100740009C911397009719F0FD01DC01F7CF8D9173
:100750009C9111979D012E5F3F4F820F931F209117
:10076000990030919A002817390769F4309729F4D5
:1007700010929C0010929B0002C013821282B093D0
:100780009A00A0939900DF91CF910895E199FECF4F
:100790009FBB8EBBE09A99278DB30895262FE199D0
:1007A000FECF9FBB8EBB2DBB0FB6F894E29AE19AA9
:0A07B0000FBE01960895F894FFCFE4
:1007BA0000009D002000C0F9A4B0999282F88090B0
:0207CA00013CF0
:00000001FF
