S01700004763634170706C69636174696F6E322E737265635A
S11300000C942A000C94AA010C9447000C94470009
S11300100C9447000C9447000C9447000C94470040
S11300200C9447000C9456010C9447000C947C01EA
S11300300C9447000C9447000C9447000C94470020
S11300400C9447000C9447000C9447000C94470010
S11300500C94470011241FBECFE5D8E0DEBFCDBF0E
S113006010E0A0E6B0E0E2EFF6E002C005900D92E9
S1130070A237B107D9F720E0A2E7B0E001C01D9292
S1130080A038B207E1F70E94C8010C9477030C94DE
S11300900000929A8A98909A8898919A899880E414
S11300A08BBF83E085BF78940895809B02C08199BB
S11300B047C080917500813071F5809917C0809197
S11300C07400882399F0809170008B3418F48B5F4E
S11300D08093700080990AC0809170000E94C800CB
S11300E0809BFACF809175008130A9F4819913C067
S11300F080917000843278F090917400992359F0C3
S1130100855080937000819906C0809170000E9490
S1130110C800819BFACF6091700085E590E00E9451
S11301206A0381E0809375001092740085E590E085
S11301300E946203809370008BE791EE9DBD8CBD9D
S113014008956091700085E590E00E946A03089527
S1130150CF93C82F84E090E00E94410226E0FC0186
S11301602083118223E02283C3830E94FB01CF9169
S1130170089580E00E942602969587959695879526
S113018008958FEF87BB18BA08958FE788BB089549
S11301909DEC899F912D1124E92FE695E695E6952E
S11301A0EE0F2E2F220F220FE20F8E1B80937B0067
S11301B096959695969590937A00E82FF0E0EA59F3
S11301C0FF4F808188BB8FE19EE40197F1F700C067
S11301D00000D998DA9AE0917A00F0E0EA59FF4FEA
S11301E0808188BB8FE19EE40197F1F700C0000095
S11301F0D99ADA9808958F9A8E9A0895969A0895BE
S113020096980895979A089597980895FF920F9352
S11302101F93CF93DF93CDB7DEB764970FB6F894EF
S1130220DEBF0FBECDBF8E010F5F1F4F84E1F8010B
S113023011928A95E9F785E590E00E946203F82E11
S11302400E94B9009A838983F8019E012B5E3F4F77
S113025080E090813296890FE217F307D1F79DEC85
S1130260899F812D1124869586958695F81628F404
S11302700E94FE000E9404010BC08F1528F40E9406
S113028002010E94000104C00E9404010E940001B6
S113029086E082BF64960FB6F894DEBF0FBECDBF72
S11302A0DF91CF911F910F91FF9008951F920F92AC
S11302B00FB60F9211248F939F9380917500813014
S11302C059F48FEF88BB80917400893029F410921F
S11302D0750081E0809374008BE791EE9DBD8CBD29
S11302E0809174008F5F809374009F918F910F9021
S11302F00FBE0F901F9018951F920F920FB60F927A
S113030011242F933F934F935F936F937F938F9316
S11303109F93AF93BF93EF93FF93809173008F5F8D
S11303208A3019F08093730004C0109273000E9405
S11303300601FF91EF91BF91AF919F918F917F91B2
S11303406F915F914F913F912F910F900FBE0F903E
S11303501F9018951F920F920FB60F9211242F938E
S11303608F939F93809172008095809372002FE702
S113037088E391E0215080409040E1F700C0000004
S11303809F918F912F910F900FBE0F901F901895F2
S11303900E94A1000E9449000E94C1000E942E02F6
S11303A00E9435020E94FB0080E00E94A800C1E088
S11303B0809172008823A1F00E94550080917500FD
S11303C0811105C00E94B9000E94C800F1CF80913C
S11303D0740080FDEDCF809170000E94C800E8CFCA
S11303E00E94C5000E9404010E9400011092750041
S11303F0C0937400DDCFDC01E6E7F0E08C918083EC
S113040011968C911197818312969C9112979283E5
S113041013969C919383813011F4339A03C0811114
S113042001C03398379A96B1E6E7F0E08081892BD2
S113043086B927B1928130E4939FC0011124822BA5
S113044087B997B18381892B87B90895369A349BEC
S1130450FECF84B125B190E0922B089581E089BF4D
S113046082EB82BF85E083BF08951FBC8EB5856093
S11304708EBD8BE791EE9DBD8CBD89B7846089BF2D
S113048008950F931F93CF93DF938230910510F457
S113049082E090E0E0917E00F0917F0020E030E087
S11304A0A0E0B0E0309719F14081518102811381BD
S11304B048175907C8F08417950769F4109731F065
S11304C012960C93129713961C9327C000937E00E8
S11304D010937F0022C02115310519F042175307EC
S11304E018F49A01BD01EF01DF01F801DBCF2115FA
S11304F03105F9F0281B390B2430310580F48A8149
S11305009B816115710521F0FB019383828304C0F3
S113051090937F0080937E00FE01329644C0FE01DA
S1130520E20FF31F81939193225031093983288379
S11305303AC020917C0030917D00232B41F420911E
S113054062003091630030937D0020937C00209101
S11305506000309161002115310541F42DB73EB79B
S11305604091640050916500241B350BE0917C00A0
S1130570F0917D00E217F307A0F42E1B3F0B281720
S1130580390778F0AC014E5F5F4F2417350748F008
S11305904E0F5F1F50937D0040937C008193919395
S11305A002C0E0E0F0E0CF01DF91CF911F910F9105
S11305B00895CF93DF93009709F481C0FC0132972B
S11305C013821282A0917E00B0917F00109781F473
S11305D020813181820F931F20917C0030917D0016
S11305E02817390751F5F0937D00E0937C0067C02C
S11305F0ED0120E030E0CE17DF0740F44A815B8153
S11306009E0141155105F1F0EA01F5CFD383C28370
S113061040815181840F951FC817D90759F48881E7
S11306209981840F951F0296918380838A819B818F
S1130630938382832115310529F4F0937F00E0939D
S11306407E003DC0E901FB83EA8349915991C40FBF
S1130650D51FEC17FD0761F480819181840F951FEC
S11306600296E90199838883828193819B838A839B
S1130670E0E0F0E012968D919C911397009719F0A9
S1130680FD01DC01F7CF8D919C9111979D012E5FA7
S11306903F4F820F931F20917C0030917D002817DB
S11306A0390769F4309729F410927F0010927E0084
S11306B002C013821282B0937D00A0937C00DF916C
S11306C0CF910895E199FECF9FBB8EBBE09A992705
S11306D08DB30895262FE199FECF9FBB8EBB2DBB12
S11306E00FB6F894E29AE19A0FBE01960895F89431
S10506F0FFCF36
S11306F2000080002000C0F9A4B0999282F8809092
S10507023C00B5
S9030000FC
