:100000000C942A000C9454010C9447000C94470063
:100010000C9447000C9447000C9447000C94470044
:100020000C9447000C9447000C9447000C94470034
:100030000C9447000C9447000C9447000C94470024
:100040000C9447000C9447000C9447000C94470014
:100050000C94470011241FBECFE5D8E0DEBFCDBF12
:1000600010E0A0E6B0E0E4E4F6E002C005900D92F6
:10007000A237B107D9F720E0A2E7B0E001C01D9296
:10008000A038B207E1F70E9472010C9420030C948F
:100090000000929A8A98909A8898919A899880E418
:1000A0008BBF83E085BF78940895809B02C08199BF
:1000B00060C080917400813009F045C080990AC009
:1000C000809170008B3408F04DC0809173008130B6
:1000D00059F445C0809917C0809170008B3498F412
:1000E00080917900853078F0609170006B5F60934B
:1000F000700085E590E00E941303109279008091D2
:100100007400813001F5819909C0809170008432BA
:1001100070F180917300813059F426C0819913C029
:1001200080917000843278F080917900853058F0A9
:100130006091700065506093700085E590E00E94CA
:1001400013031092790081E0809374001092730081
:1001500085E590E00E940B03809370000895809BDA
:10016000BFCFD1CF80B3CFCF8199EDCFDDCF80B3DB
:10017000EACF0895CF93C82F84E090E00E94EA016F
:1001800026E0FC012083118223E02283C3830E94A6
:10019000B701CF91089580E00E94E201969587957E
:1001A0009695879508958FEF87BB18BA08958FE7C6
:1001B00088BB08959DEC899F912D1124E92FE69528
:1001C000E695E695EE0F2E2F220F220FE20F8E1BE3
:1001D00080937B0096959695969590937A00E82F5C
:1001E000F0E0EA59FF4F808188BB8FE097E20197EA
:1001F000F1F700C00000D998DA9AE0917A00F0E0B7
:10020000EA59FF4F808188BB8FE097E20197F1F7B1
:1002100000C00000D99ADA9808959FE798BB2FEFA5
:1002200031EE94E0215030409040E1F700C00000F2
:100230009DEC899F912D1124E92FE695E695E69591
:10024000EE0F2E2F220F220FE20F8E1B80937B00CA
:1002500096959695969590937A00E82FF0E0EA5956
:10026000FF4F808188BB8FE097E20197F1F700C0D4
:100270000000D998DA9AE0917A00F0E0EA59FF4F4D
:10028000808188BB8FE097E20197F1F700C0000002
:10029000D99ADA9808958F9A8E9A08959698089523
:1002A000979A0895979808951F920F920FB60F92FC
:1002B00011242F938F939F93809172008095809348
:1002C00072002FE788E391E0215080409040E1F7F1
:1002D00000C000009F918F912F910F900FBE0F9043
:1002E0001F9018956091700085E590E00E941303BF
:1002F0000E9449000E94D3000E944B0180E00E94AE
:10030000BA0080917200882339F10E9450010E9446
:10031000550080917400811105C00E94CB000E949D
:10032000DA00EFCF809170000E940D018091730080
:10033000893119F4109274000BC0811109C0909199
:100340007400913029F4909179009F5F9093790027
:100350008F5F80937300D5CF0E94D7000E94520117
:100360000E944E011092740010927300CACFDC01FB
:10037000E5E7F0E08C91808311968C911197818351
:1003800012969C911297928313969C91938381303D
:1003900011F4339A03C0811101C03398379A96B192
:1003A000E5E7F0E08081892B86B927B1928130E4BE
:1003B000939FC0011124822B87B997B18381892B28
:1003C00087B90895369A349BFECF84B125B190E069
:1003D000922B08950F931F93CF93DF938230910553
:1003E00010F482E090E0E0917E00F0917F0020E048
:1003F00030E0A0E0B0E0309719F1408151810281F6
:10040000138148175907C8F08417950769F41097A6
:1004100031F012960C93129713961C9327C00093F9
:100420007E0010937F0022C02115310519F042177C
:10043000530718F49A01BD01EF01DF01F801DBCF8A
:1004400021153105F9F0281B390B2430310580F4D2
:100450008A819B816115710521F0FB019383828361
:1004600004C090937F0080937E00FE01329644C0CA
:10047000FE01E20FF31F81939193225031093983DA
:1004800028833AC020917C0030917D00232B41F4D9
:10049000209162003091630030937D0020937C00B6
:1004A00020916000309161002115310541F42DB794
:1004B0003EB74091640050916500241B350BE091DC
:1004C0007C00F0917D00E217F307A0F42E1B3F0B98
:1004D0002817390778F0AC014E5F5F4F24173507B6
:1004E00048F04E0F5F1F50937D0040937C00819336
:1004F000919302C0E0E0F0E0CF01DF91CF911F9136
:100500000F910895CF93DF93009709F481C0FC0108
:10051000329713821282A0917E00B0917F001097D3
:1005200081F420813181820F931F20917C003091D2
:100530007D002817390751F5F0937D00E0937C008A
:1005400067C0ED0120E030E0CE17DF0740F44A81BC
:100550005B819E0141155105F1F0EA01F5CFD3838E
:10056000C28340815181840F951FC817D90759F460
:1005700088819981840F951F0296918380838A8157
:100580009B81938382832115310529F4F0937F00A9
:10059000E0937E003DC0E901FB83EA8349915991D4
:1005A000C40FD51FEC17FD0761F480819181840F82
:1005B000951F0296E90199838883828193819B83A9
:1005C0008A83E0E0F0E012968D919C91139700975A
:1005D00019F0FD01DC01F7CF8D919C9111979D01E0
:1005E0002E5F3F4F820F931F20917C0030917D0042
:1005F0002817390769F4309729F410927F00109278
:100600007E0002C013821282B0937D00A0937C0012
:10061000DF91CF910895E199FECF9FBB8EBBE09A09
:1006200099278DB30895262FE199FECF9FBB8EBBEE
:100630002DBB0FB6F894E29AE19A0FBE0196089589
:04064000F894FFCF5C
:10064400000080002000C0F9A4B0999282F8809044
:020654003C0068
:00000001FF
