:100000000C942A000C9419020C9447000C9447009D
:100010000C9447000C9447000C9447000C94470044
:100020000C9447000C9447000C9447000C94F50185
:100030000C9447000C9447000C9447000C94470024
:100040000C9447000C9447000C9447000C94470014
:100050000C94470011241FBECFE5D8E0DEBFCDBF12
:1000600010E0A0E6B0E0E2EDF7E002C005900D92EE
:10007000A237B107D9F720E0A2E7B0E001C01D9296
:10008000AD39B207E1F70E942A020C94E7030C9401
:100090000000929A8A98909A8898919A899880E418
:1000A0008BBF83E085BF78940895809B02C08199BF
:1000B00043C080917700813071F5809917C080919D
:1000C0007600882399F0809170008B3418F48B5F50
:1000D0008093700080990AC0809170000E94C400D3
:1000E000809BFACF809177008130A9F4819913C069
:1000F00080917000843278F090917600992359F0C5
:10010000855080937000819906C0809170000E9494
:10011000C400819BFACF6091700085E590E00E9459
:10012000DA0381E0809377001092760085E590E015
:100130000E94D2038093700008956091700085E55D
:1001400090E00E94DA030895CF93C82F84E090E0F6
:100150000E94B10226E0FC012083118223E0228369
:10016000C3830E943602CF91089580E00E9461020D
:10017000969587959695879508958FEF87BB18BAC2
:1001800008958FE788BB08959DEC899F912D1124D8
:10019000969596959695392F330F232F220F220F80
:1001A000230F821B80939800909397008091710099
:1001B00081110AC0D99ADA98E0919800F0E0EA59E2
:1001C000FF4F808188BB0895D998DA9AE091970013
:1001D000F0E0EA59FF4F808188BB08950E949D009E
:1001E0000E9449000E94BD000E9469020E946601AF
:1001F00080E00E94A400089580917300882361F03C
:1002000080917100813019F41092710003C081E077
:100210008093710010927300809174008F5F8093BF
:100220007400809173008F5F8093730080917500DC
:100230008F5F809375008E31D8F080917200809529
:100240008093720080917700813059F40E94C10040
:1002500080917600893029F41092770081E08093B4
:100260007600809176008F5F809376001092750003
:1002700080917400833020F0109274000E94A801D5
:1002800008950E94C1000E9470010E947F010E9497
:100290006C011092770081E08093760008950E94AF
:1002A000550080917700811105C00E94B5000E9421
:1002B000C40008958091760080FD05C08091700093
:1002C0000E94C40008950E94C10008958F9A8E9ADA
:1002D0008B9A0895969A089596980895979A0895F6
:1002E0009798089580917200882329F0939A8091BD
:1002F0007200811101C093980895939A089593987C
:10030000089585E590E00E94D20390E02091780066
:1003100030917900821B930B853F2FEF92073CF4BD
:100320000E946A010E9470010E947D0108958F3F22
:100330009F4F3CF00E946E010E946C010E9472016E
:1003400008950E9470010E946C010E947F0108952F
:10035000CF93DF93C0919000D0919100CA30D10526
:1003600094F40E94B500CC0FDD1FC458DF4F998371
:1003700088838091900090919100019690939100D4
:10038000809390002FC010929100109290004091A5
:1003900078005091790060917A0070917B00ECE7D1
:1003A000F0E020E930E081919191092E000CAA0B38
:1003B000BB0B480F591F6A1F7B1FE217F30799F702
:1003C000CB01BA012AE030E040E050E00E94700228
:1003D000209378003093790040937A0050937B000B
:1003E0000E948101DF91CF9108951F920F920FB665
:1003F0000F9211242F933F934F935F936F937F93AB
:100400008F939F93AF93BF93EF93FF930E94FC0052
:10041000FF91EF91BF91AF919F918F917F916F91DC
:100420005F914F913F912F910F900FBE0F901F90B2
:1004300018951F920F920FB60F9211248F938091EF
:1004400092008095809392008F910F900FBE0F9035
:100450001F9018950E94EE0080919200882319F059
:100460000E944F01F9CF0E944101F6CFDC01E3E980
:10047000F0E08C91808311968C9111978183129674
:100480009C911297928313969C919383813011F4DF
:10049000339A03C0811101C03398379A96B1E3E9CA
:1004A000F0E08081892B86B927B1928130E4939F57
:1004B000C0011124822B87B997B18381892B87B919
:1004C0000895369A349BFECF84B125B190E0922BEB
:1004D000089581E089BF88E082BF85E083BF0895E9
:1004E000052E97FB1EF400940E94870257FD07D04B
:1004F0000E948F0207FC03D04EF40C9487025095A3
:100500004095309521953F4F4F4F5F4F08959095FF
:100510008095709561957F4F8F4F9F4F0895A1E211
:100520001A2EAA1BBB1BFD010DC0AA1FBB1FEE1F6D
:10053000FF1FA217B307E407F50720F0A21BB30BB8
:10054000E40BF50B661F771F881F991F1A9469F734
:1005500060957095809590959B01AC01BD01CF0190
:1005600008950F931F93CF93DF938230910510F47A
:1005700082E090E0E0919B00F0919C0020E030E070
:10058000A0E0B0E0309719F14081518102811381E0
:1005900048175907C8F08417950769F4109731F088
:1005A00012960C93129713961C9327C000939B00EE
:1005B00010939C0022C02115310519F042175307F2
:1005C00018F49A01BD01EF01DF01F801DBCF21151D
:1005D0003105F9F0281B390B2430310580F48A816C
:1005E0009B816115710521F0FB019383828304C017
:1005F00090939C0080939B00FE01329644C0FE01C4
:10060000E20FF31F8193919322503109398328839C
:100610003AC02091990030919A00232B41F4209107
:1006200062003091630030939A00209399002091EA
:100630006000309161002115310541F42DB73EB7BE
:100640004091640050916500241B350BE0919900A6
:10065000F0919A00E217F307A0F42E1B3F0B281726
:10066000390778F0AC014E5F5F4F2417350748F02B
:100670004E0F5F1F50939A0040939900819391937E
:1006800002C0E0E0F0E0CF01DF91CF911F910F9128
:100690000895CF93DF93009709F481C0FC0132974E
:1006A00013821282A0919B00B0919C00109781F45C
:1006B00020813181820F931F2091990030919A00FF
:1006C0002817390751F5F0939A00E093990067C015
:1006D000ED0120E030E0CE17DF0740F44A815B8176
:1006E0009E0141155105F1F0EA01F5CFD383C28394
:1006F00040815181840F951FC817D90759F488810B
:100700009981840F951F0296918380838A819B81B2
:10071000938382832115310529F4F0939C00E093A3
:100720009B003DC0E901FB83EA8349915991C40FC5
:10073000D51FEC17FD0761F480819181840F951F0F
:100740000296E90199838883828193819B838A83BE
:10075000E0E0F0E012968D919C911397009719F0CC
:10076000FD01DC01F7CF8D919C9111979D012E5FCA
:100770003F4F820F931F2091990030919A002817C4
:10078000390769F4309729F410929C0010929B006D
:1007900002C013821282B0939A00A0939900DF9155
:1007A000CF910895E199FECF9FBB8EBBE09A992728
:1007B0008DB30895262FE199FECF9FBB8EBB2DBB35
:1007C0000FB6F894E29AE19A0FBE01960895F89454
:0207D000FFCF59
:1007D20000009D002000C0F9A4B0999282F8809098
:0207E2003C01D8
:00000001FF
