:100000000C942A000C94B8010C9447000C944700FF
:100010000C9447000C9447000C9447000C94470044
:100020000C9447000C9464010C9447000C948A01D2
:100030000C9447000C9447000C9447000C94470024
:100040000C9447000C9447000C9447000C94470014
:100050000C94470011241FBECFE5D8E0DEBFCDBF12
:1000600010E0A0E6B0E0EEE5F7E002C005900D92EA
:10007000A237B107D9F720E0A2E7B0E001C01D9296
:10008000A839B207E1F70E94D6010C94AD030C9495
:100090000000929A8A98909A8898919A899880E418
:1000A0008BBF83E085BF78940895809B02C08199BF
:1000B00047C080918D00813071F5809917C0809183
:1000C0008C00882399F0809170008B3418F48B5F3A
:1000D0008093700080990AC0809170000E94C800CF
:1000E000809BFACF80918D008130A9F4819913C053
:1000F00080917000843278F090918C00992359F0AF
:10010000855080937000819906C0809170000E9494
:10011000C800819BFACF6091700085E590E00E9455
:10012000A00381E080938D0010928C0085E590E023
:100130000E949803809370008BE791EE9DBD8CBD6B
:1001400008956091700085E590E00E94A0030895F5
:10015000CF93C82F84E090E00E94770226E0FC0154
:100160002083118223E02283C3830E940902CF915E
:10017000089580E00E94340296958795969587951C
:1001800008958FEF87BB18BA08958FE788BB08954D
:100190009DEC899F912D1124E92FE695E695E69532
:1001A000EE0F2E2F220F220FE20F8E1B8093930053
:1001B00096959695969590939200E82FF0E0EA59DF
:1001C000FF4F808188BB8FE19EE40197F1F700C06B
:1001D0000000D998DA9AE0919200F0E0EA59FF4FD6
:1001E000808188BB8FE19EE40197F1F700C0000099
:1001F000D99ADA9808958F9A8E9A0895969A0895C2
:1002000096980895979A08959798089585E590E0AF
:100210000E94980390E02091720030917300821741
:1002200093072CF40E94FE000E94040108952817F1
:1002300039072CF40E9402010E94000108950E94D7
:1002400004010E9400010895CF93DF93C0918800BC
:10025000D0918900CA30D10594F40E94B900CC0F26
:10026000DD1FCC58DF4F998388838091880090915F
:1002700089000196909389008093880019C010929C
:1002800089001092880014C081919191280F391F24
:10029000822F932FE417F507B9F76AE070E00E9408
:1002A0004F0270937300609372000E94060109C0B0
:1002B0002091720030917300E4E7F0E048E850E0EC
:1002C000E3CFDF91CF9108951F920F920FB60F9257
:1002D00011248F939F9380918D00813059F48FEF7B
:1002E00088BB80918C00893029F410928D0081E0C8
:1002F00080938C008BE791EE9DBD8CBD80918C002E
:100300008F5F80938C009F918F910F900FBE0F9005
:100310001F9018951F920F920FB60F9211242F93D2
:100320003F934F935F936F937F938F939F93AF937D
:10033000BF93EF93FF9380918B008F5F8A3019F00A
:1003400080938B0004C010928B000E942401FF91C7
:10035000EF91BF91AF919F918F917F916F915F913D
:100360004F913F912F910F900FBE0F901F901895B6
:100370001F920F920FB60F9211242F938F939F937A
:1003800080918A00809580938A002FE788E391E02E
:10039000215080409040E1F700C000009F918F9174
:1003A0002F910F900FBE0F901F9018950E94A100E3
:1003B0000E9449000E94C1000E943C020E94430228
:1003C0000E94FB0080E00E94A800C1E080918A00AA
:1003D0008823A1F00E94550080918D00811105C0F5
:1003E0000E94B9000E94C800F1CF80918C0080FD6E
:1003F000EDCF809170000E94C800E8CF0E94C50038
:100400000E9404010E94000110928D00C0938C0094
:10041000DDCFDC01EEE8F0E08C91808311968C91C9
:100420001197818312969C911297928313969C91B7
:100430009383813011F4339A03C0811101C0339842
:10044000379A96B1EEE8F0E08081892B86B927B122
:10045000928130E4939FC0011124822B87B997B118
:100460008381892B87B90895369A349BFECF84B156
:1004700025B190E0922B089581E089BF82EB82BF85
:1004800085E083BF08951FBC8EB585608EBD8BE768
:1004900091EE9DBD8CBD89B7846089BF089597FB9F
:1004A000072E16F4009407D077FD09D00E9463024E
:1004B00007FC05D03EF4909581959F4F0895709567
:1004C00061957F4F0895AA1BBB1B51E107C0AA1F6E
:1004D000BB1FA617B70710F0A61BB70B881F991FE5
:1004E0005A95A9F780959095BC01CD0108950F9379
:1004F0001F93CF93DF938230910510F482E090E058
:10050000E0919600F091970020E030E0A0E0B0E0AC
:10051000309719F1408151810281138148175907A1
:10052000C8F08417950769F4109731F012960C9370
:10053000129713961C9327C0009396001093970070
:1005400022C02115310519F04217530718F49A01FA
:10055000BD01EF01DF01F801DBCF21153105F9F015
:10056000281B390B2430310580F48A819B81611569
:10057000710521F0FB019383828304C0909397005F
:1005800080939600FE01329644C0FE01E20FF31FF5
:100590008193919322503109398328833AC0209165
:1005A000940030919500232B41F42091620030910A
:1005B0006300309395002093940020916000309167
:1005C00061002115310541F42DB73EB7409164001B
:1005D00050916500241B350BE0919400F09195003B
:1005E000E217F307A0F42E1B3F0B2817390778F00A
:1005F000AC014E5F5F4F2417350748F04E0F5F1F69
:1006000050939500409394008193919302C0E0E051
:10061000F0E0CF01DF91CF911F910F910895CF931B
:10062000DF93009709F481C0FC0132971382128294
:10063000A0919600B0919700109781F420813181AC
:10064000820F931F2091940030919500281739074D
:1006500051F5F0939500E093940067C0ED0120E020
:1006600030E0CE17DF0740F44A815B819E014115DF
:100670005105F1F0EA01F5CFD383C2834081518166
:10068000840F951FC817D90759F488819981840F61
:10069000951F0296918380838A819B8193838283B5
:1006A0002115310529F4F0939700E09396003DC0A1
:1006B000E901FB83EA8349915991C40FD51FEC17D7
:1006C000FD0761F480819181840F951F0296E901F5
:1006D00099838883828193819B838A83E0E0F0E021
:1006E00012968D919C911397009719F0FD01DC01F2
:1006F000F7CF8D919C9111979D012E5F3F4F820FF7
:10070000931F20919400309195002817390769F4C0
:10071000309729F4109297001092960002C013822D
:100720001282B0939500A0939400DF91CF91089529
:10073000E199FECF9FBB8EBBE09A99278DB30895B8
:10074000262FE199FECF9FBB8EBB2DBB0FB6F89431
:0E075000E29AE19A0FBE01960895F894FFCF49
:10075E00000098002000C0F9A4B0999282F8809011
:02076E003C004D
:00000001FF
