:100000000C942A000C9447000C9447000C94470071
:100010000C9447000C9447000C9447000C94A300E8
:100020000C9447000C9447000C9447000C94470034
:100030000C9447000C9447000C9447000C94470024
:100040000C9447000C9447000C9447000C94470014
:100050000C94470011241FBECFE5D8E0DEBFCDBF12
:1000600020E0A6E6B0E001C01D92A638B207E1F795
:1000700010E0A0E6B0E0ECEAF4E002C005900D92DA
:10008000A636B107D9F70E94C7000C9454020C940D
:100090000000CF93C82F84E090E00E94330126E057
:1000A000FC012083118223E02283C3830E94CE00BF
:1000B000CF91089580E00E94F900969587959695D6
:1000C00087950895CF93DF93C0917C00D0917D00F8
:1000D000CA30D10594F40E945A00CC0FDD1FC859D4
:1000E000DF4F9983888380917C0090917D000196F9
:1000F00090937D0080937C001AC010927D00109236
:100100007C0015C081919191280F391F822F932F68
:10011000E417F507B9F76AE070E00E940B017093ED
:1001200067006093660082B3809582BB09C020910E
:10013000660030916700E8E6F0E04CE750E0E2CF7F
:10014000DF91CF9108951F920F920FB60F92112455
:100150002F933F934F935F936F937F938F939F93CF
:10016000AF93BF93EF93FF930E946200FF91EF91D3
:10017000BF91AF919F918F917F916F915F914F91BF
:100180003F912F910F900FBE0F901F9018950E94D6
:10019000010180E00E9449007894FFCFDC01EEE786
:1001A000F0E08C91808311968C9111978183129647
:1001B0009C911297928313969C919383813011F4B2
:1001C000339A03C0811101C03398379A96B1EEE794
:1001D000F0E08081892B86B927B1928130E4939F2A
:1001E000C0011124822B87B997B18381892B87B9EC
:1001F0000895369A349BFECF84B125B190E0922BBE
:1002000008951FBC89E08EBD80E898E39DBD8CBD3C
:1002100080E189BF089597FB072E16F4009407D05C
:1002200077FD09D00E941F0107FC05D03EF4909590
:1002300081959F4F0895709561957F4F0895AA1BF2
:10024000BB1B51E107C0AA1FBB1FA617B70710F0C1
:10025000A61BB70B881F991F5A95A9F780959095F3
:10026000BC01CD0108950F931F93CF93DF9382308C
:10027000910510F482E090E0E0918400F091850017
:1002800020E030E0A0E0B0E0309719F140815181EA
:100290000281138148175907C8F08417950769F43C
:1002A000109731F012960C93129713961C9327C057
:1002B000009384001093850022C02115310519F0A8
:1002C0004217530718F49A01BD01EF01DF01F8014D
:1002D000DBCF21153105F9F0281B390B243031050E
:1002E00080F48A819B816115710521F0FB01938364
:1002F000828304C09093850080938400FE0132962F
:1003000044C0FE01E20FF31F819391932250310903
:10031000398328833AC02091820030918300232BB7
:1003200041F4209162003091630030938300209368
:10033000820020916000309161002115310541F467
:100340002DB73EB74091640050916500241B350BDA
:10035000E0918200F0918300E217F307A0F42E1BD6
:100360003F0B2817390778F0AC014E5F5F4F241719
:10037000350748F04E0F5F1F509383004093820073
:100380008193919302C0E0E0F0E0CF01DF91CF9143
:100390001F910F910895CF93DF93009709F481C0C7
:1003A000FC01329713821282A0918400B0918500E3
:1003B000109781F420813181820F931F2091820058
:1003C000309183002817390751F5F0938300E093AB
:1003D000820067C0ED0120E030E0CE17DF0740F477
:1003E0004A815B819E0141155105F1F0EA01F5CF8B
:1003F000D383C28340815181840F951FC817D907C9
:1004000059F488819981840F951F02969183808386
:100410008A819B81938382832115310529F4F0938E
:100420008500E09384003DC0E901FB83EA834991A4
:100430005991C40FD51FEC17FD0761F4808191819C
:10044000840F951F0296E9019983888382819381A5
:100450009B838A83E0E0F0E012968D919C91139744
:10046000009719F0FD01DC01F7CF8D919C91119758
:100470009D012E5F3F4F820F931F2091820030918C
:1004800083002817390769F4309729F41092850002
:100490001092840002C013821282B0938300A09352
:0C04A0008200DF91CF910895F894FFCF07
:0604AC00000086002000A4
:00000001FF
