S01700004763634170706C69636174696F6E322E737265635A
S11300000C942A000C94B3000C9447000C94470001
S11300100C9447000C9447000C9447000C94470040
S11300200C9447000C9447000C9447000C94470030
S11300300C9447000C9447000C9447000C94470020
S11300400C9447000C9447000C9447000C94470010
S11300500C94470011241FBECFE5D8E0DEBFCDBF0E
S113006010E0A0E6B0E0E8ECF5E002C005900D92E7
S1130070A037B107D9F720E0A0E7B0E001C01D9296
S1130080AD37B207E1F70E94D1000C94E2020C9460
S113009000001F93CF93DF93EC01162F0E944C01B5
S11300A080E50E947901812F0E94A1010E945D01D7
S11300B080E50E948D01CE010E94B0010E946E0174
S11300C0DF91CF911F910895CF93C82F84E090E0E2
S11300D00E94C10126E0FC012083118223E02283D7
S11300E0C3830E941901CF91089580E00E944401C6
S11300F0969587959695879508958FE788BB08957B
S11301009DEC899F912D1124E92FE695E695E695BE
S1130110EE0F2E2F220F220FE20F8E1B80937800FA
S113012096959695969590937700E82FF0E0EA5986
S1130130FF4F808188BB8FE097E20197F1F700C001
S11301400000D998DA9AE0917700F0E0EA59FF4F7D
S1130150808188BB8FE097E20197F1F700C000002F
S1130160D99ADA9808951F920F920FB60F9211241C
S11301702F938F939F938091720080958093720048
S11301802FE788E391E0215080409040E1F700C0E0
S113019000009F918F912F910F900FBE0F901F9091
S11301A0189511BA8FEF82BB87BB18BA80E48BBF56
S11301B083E085BF789480E00E946400C1E0809B66
S11301C002C0819909C0C09370001092710080919F
S11301D07200882339F10DC080917200882311F1D7
S11301E080917000811105C00E9475000E948000FA
S11301F0E6CF0E947D002FEF89E698E121508040F0
S11302009040E1F700C000000E9449000E94800075
S113021080917100853011F4109270008F5F80938B
S11302207100CDCF0E947D00109270001092710079
S1130230C6CFDC01E3E7F0E08C91808311968C91CA
S11302401197818312969C911297928313969C9195
S11302509383813011F4339A03C0811101C0339820
S1130260379A96B1E3E7F0E08081892B86B927B10C
S1130270928130E4939FC0011124822B87B997B1F6
S11302808381892B87B90895369A349BFECF84B134
S113029025B190E0922B089586B7806286BF86B719
S11302A0806886BF06B607FEFDCF81B1887F88309F
S11302B011F082E0089581E0089586B7806286BFD8
S11302C086B7806886BF06B607FEFDCF81B1887FFA
S11302D0803111F083E0089581E0089586B780614C
S11302E086BF86B7806886BF06B607FEFDCF81E06D
S11302F00895880F83B9189886B78F7D86BF86B70F
S1130300806886BF06B607FEFDCF81B1887F88313D
S113031011F084E0089581E00895880F83B9189A54
S113032086B78F7D86BF86B7806886BF06B607FE10
S1130330FDCF81B1887F803411F085E0089581E09C
S1130340089583B986B7806886BF06B607FEFDCFD9
S113035081B1887F883211F086E0089581E00895A4
S1130360FC0196B7906896BF06B607FEFDCF91B123
S1130370987F903521F483B1808381E0089587E0EC
S113038008950F931F93CF93DF938230910510F458
S113039082E090E0E0917B00F0917C0020E030E08E
S11303A0A0E0B0E0309719F14081518102811381BE
S11303B048175907C8F08417950769F4109731F066
S11303C012960C93129713961C9327C000937B00EC
S11303D010937C0022C02115310519F042175307F0
S11303E018F49A01BD01EF01DF01F801DBCF2115FB
S11303F03105F9F0281B390B2430310580F48A814A
S11304009B816115710521F0FB019383828304C0F4
S113041090937C0080937B00FE01329644C0FE01E1
S1130420E20FF31F8193919322503109398328837A
S11304303AC02091790030917A00232B41F4209125
S113044062003091630030937A0020937900209108
S11304506000309161002115310541F42DB73EB79C
S11304604091640050916500241B350BE0917900A4
S1130470F0917A00E217F307A0F42E1B3F0B281724
S1130480390778F0AC014E5F5F4F2417350748F009
S11304904E0F5F1F50937A0040937900819391939C
S11304A002C0E0E0F0E0CF01DF91CF911F910F9106
S11304B00895CF93DF93009709F481C0FC0132972C
S11304C013821282A0917B00B0917C00109781F47A
S11304D020813181820F931F2091790030917A001D
S11304E02817390751F5F0937A00E093790067C033
S11304F0ED0120E030E0CE17DF0740F44A815B8154
S11305009E0141155105F1F0EA01F5CFD383C28371
S113051040815181840F951FC817D90759F48881E8
S11305209981840F951F0296918380838A819B8190
S1130530938382832115310529F4F0937C00E093A1
S11305407B003DC0E901FB83EA8349915991C40FC3
S1130550D51FEC17FD0761F480819181840F951FED
S11305600296E90199838883828193819B838A839C
S1130570E0E0F0E012968D919C911397009719F0AA
S1130580FD01DC01F7CF8D919C9111979D012E5FA8
S11305903F4F820F931F2091790030917A002817E2
S11305A0390769F4309729F410927C0010927B008B
S11305B002C013821282B0937A00A0937900DF9173
S10B05C0CF910895F894FFCFD8
S11305C800007D002000C0F9A4B0999282F88090C0
S9030000FC
